{"project/contracts/AgenticLooper.sol":{"AgenticLooper":{"abi":[{"inputs":[{"internalType":"address","name":"_pool","type":"address"},{"internalType":"address","name":"_morpho","type":"address"}],"stateMutability":"nonpayable","type":"constructor"},{"inputs":[{"internalType":"address","name":"token","type":"address"}],"name":"SafeERC20FailedOperation","type":"error"},{"anonymous":false,"inputs":[{"indexed":true,"internalType":"address","name":"asset","type":"address"},{"indexed":false,"internalType":"uint256","name":"amount","type":"uint256"}],"name":"LoopExecuted","type":"event"},{"anonymous":false,"inputs":[{"indexed":true,"internalType":"address","name":"asset","type":"address"},{"indexed":false,"internalType":"uint256","name":"amount","type":"uint256"}],"name":"UnwindExecuted","type":"event"},{"inputs":[],"name":"ADDRESSES_PROVIDER","outputs":[{"internalType":"contract IPoolAddressesProvider","name":"","type":"address"}],"stateMutability":"view","type":"function"},{"inputs":[],"name":"POOL","outputs":[{"internalType":"contract IPool","name":"","type":"address"}],"stateMutability":"view","type":"function"},{"inputs":[{"internalType":"address","name":"asset","type":"address"},{"internalType":"uint256","name":"amount","type":"uint256"},{"internalType":"uint256","name":"premium","type":"uint256"},{"internalType":"address","name":"initiator","type":"address"},{"internalType":"bytes","name":"params","type":"bytes"}],"name":"executeOperation","outputs":[{"internalType":"bool","name":"","type":"bool"}],"stateMutability":"nonpayable","type":"function"},{"inputs":[],"name":"morpho","outputs":[{"internalType":"contract IMorpho","name":"","type":"address"}],"stateMutability":"view","type":"function"},{"inputs":[],"name":"owner","outputs":[{"internalType":"address","name":"","type":"address"}],"stateMutability":"view","type":"function"},{"inputs":[],"name":"pool","outputs":[{"internalType":"contract IPool","name":"","type":"address"}],"stateMutability":"view","type":"function"},{"inputs":[{"internalType":"address","name":"asset","type":"address"},{"internalType":"uint256","name":"amount","type":"uint256"},{"internalType":"bytes","name":"params","type":"bytes"}],"name":"requestLoop","outputs":[],"stateMutability":"nonpayable","type":"function"},{"inputs":[{"internalType":"address","name":"asset","type":"address"},{"internalType":"uint256","name":"amountToRepay","type":"uint256"},{"internalType":"bytes","name":"params","type":"bytes"}],"name":"requestUnwind","outputs":[],"stateMutability":"nonpayable","type":"function"},{"stateMutability":"payable","type":"receive"}],"evm":{"bytecode":{"linkReferences":{},"object":"60c060405234801562000010575f80fd5b5060405162001a8338038062001a8383398181016040528101906200003691906200014a565b8173ffffffffffffffffffffffffffffffffffffffff1660808173ffffffffffffffffffffffffffffffffffffffff16815250508073ffffffffffffffffffffffffffffffffffffffff1660a08173ffffffffffffffffffffffffffffffffffffffff1681525050335f806101000a81548173ffffffffffffffffffffffffffffffffffffffff021916908373ffffffffffffffffffffffffffffffffffffffff16021790555050506200018f565b5f80fd5b5f73ffffffffffffffffffffffffffffffffffffffff82169050919050565b5f6200011482620000e9565b9050919050565b620001268162000108565b811462000131575f80fd5b50565b5f8151905062000144816200011b565b92915050565b5f8060408385031215620001635762000162620000e5565b5b5f620001728582860162000134565b9250506020620001858582860162000134565b9150509250929050565b60805160a0516118776200020c5f395f81816103bb01528181610403015281816104a4015281816105e20152818161062a015281816106c3015261097d01525f81816101ea0152818161027c015281816102a1015281816105420152818161076801528181610811015281816108e70152610a2e01526118775ff3fe60806040526004361061007e575f3560e01c80638da5cb5b1161004d5780638da5cb5b14610143578063d1fb74a71461016d578063d8fbc83314610195578063db02a889146101bf57610085565b80630542975c1461008957806316f0115b146100b35780631b11d0ff146100dd5780637535d2461461011957610085565b3661008557005b5f80fd5b348015610094575f80fd5b5061009d6101e7565b6040516100aa9190610dd6565b60405180910390f35b3480156100be575f80fd5b506100c761027a565b6040516100d49190610e0f565b60405180910390f35b3480156100e8575f80fd5b5061010360048036038101906100fe9190610f08565b61029e565b6040516101109190610fb8565b60405180910390f35b348015610124575f80fd5b5061012d61080e565b60405161013a9190610e0f565b60405180910390f35b34801561014e575f80fd5b50610157610835565b6040516101649190610fe0565b60405180910390f35b348015610178575f80fd5b50610193600480360381019061018e9190610ff9565b610858565b005b3480156101a0575f80fd5b506101a961097b565b6040516101b6919061108a565b60405180910390f35b3480156101ca575f80fd5b506101e560048036038101906101e09190610ff9565b61099f565b005b5f7f000000000000000000000000000000000000000000000000000000000000000073ffffffffffffffffffffffffffffffffffffffff16630542975c6040518163ffffffff1660e01b8152600401602060405180830381865afa158015610251573d5f803e3d5ffd5b505050506040513d601f19601f8201168201806040525081019061027591906110de565b905090565b7f000000000000000000000000000000000000000000000000000000000000000081565b5f7f000000000000000000000000000000000000000000000000000000000000000073ffffffffffffffffffffffffffffffffffffffff163373ffffffffffffffffffffffffffffffffffffffff161461032d576040517f08c379a000000000000000000000000000000000000000000000000000000000815260040161032490611163565b60405180910390fd5b3073ffffffffffffffffffffffffffffffffffffffff168473ffffffffffffffffffffffffffffffffffffffff161461039b576040517f08c379a0000000000000000000000000000000000000000000000000000000008152600401610392906111cb565b60405180910390fd5b5f8084848101906103ac9190611328565b9150915081156105dd576104017f0000000000000000000000000000000000000000000000000000000000000000898b73ffffffffffffffffffffffffffffffffffffffff16610ac29092919063ffffffff16565b7f000000000000000000000000000000000000000000000000000000000000000073ffffffffffffffffffffffffffffffffffffffff166320b76e81828a5f306040518563ffffffff1660e01b81526004016104609493929190611465565b60408051808303815f875af115801561047b573d5f803e3d5ffd5b505050506040513d601f19601f8201168201806040525081019061049f91906114d1565b50505f7f000000000000000000000000000000000000000000000000000000000000000073ffffffffffffffffffffffffffffffffffffffff16638720316d838330306040518563ffffffff1660e01b8152600401610501949392919061150f565b5f604051808303815f87803b158015610518575f80fd5b505af115801561052a573d5f803e3d5ffd5b505050505f888a61053b9190611580565b90506105887f0000000000000000000000000000000000000000000000000000000000000000828d73ffffffffffffffffffffffffffffffffffffffff16610ac29092919063ffffffff16565b8a73ffffffffffffffffffffffffffffffffffffffff167f37449a181446b868cc96d3edb3f69b74eef3c7e3ad6b9911c29aba7f8d779d6f8b6040516105ce91906115b3565b60405180910390a250506107fe565b6106287f0000000000000000000000000000000000000000000000000000000000000000898b73ffffffffffffffffffffffffffffffffffffffff16610ac29092919063ffffffff16565b7f000000000000000000000000000000000000000000000000000000000000000073ffffffffffffffffffffffffffffffffffffffff1663238d6579828a306040518463ffffffff1660e01b8152600401610685939291906115cc565b5f604051808303815f87803b15801561069c575f80fd5b505af11580156106ae573d5f803e3d5ffd5b505050505f87896106bf9190611580565b90507f000000000000000000000000000000000000000000000000000000000000000073ffffffffffffffffffffffffffffffffffffffff166350d8cd4b83835f30306040518663ffffffff1660e01b8152600401610722959493929190611615565b60408051808303815f875af115801561073d573d5f803e3d5ffd5b505050506040513d601f19601f8201168201806040525081019061076191906114d1565b50506107ae7f0000000000000000000000000000000000000000000000000000000000000000828c73ffffffffffffffffffffffffffffffffffffffff16610ac29092919063ffffffff16565b8973ffffffffffffffffffffffffffffffffffffffff167f62a093031552467f4715ccc918eefd1542f0df0441aa3ad4929a477f41cb56f58a6040516107f491906115b3565b60405180910390a2505b6001925050509695505050505050565b5f7f0000000000000000000000000000000000000000000000000000000000000000905090565b5f8054906101000a900473ffffffffffffffffffffffffffffffffffffffff1681565b5f8054906101000a900473ffffffffffffffffffffffffffffffffffffffff1673ffffffffffffffffffffffffffffffffffffffff163373ffffffffffffffffffffffffffffffffffffffff16146108e5576040517f08c379a00000000000000000000000000000000000000000000000000000000081526004016108dc906116b2565b60405180910390fd5b7f000000000000000000000000000000000000000000000000000000000000000073ffffffffffffffffffffffffffffffffffffffff166342b0b77c30868686865f6040518763ffffffff1660e01b815260040161094896959493929190611747565b5f604051808303815f87803b15801561095f575f80fd5b505af1158015610971573d5f803e3d5ffd5b5050505050505050565b7f000000000000000000000000000000000000000000000000000000000000000081565b5f8054906101000a900473ffffffffffffffffffffffffffffffffffffffff1673ffffffffffffffffffffffffffffffffffffffff163373ffffffffffffffffffffffffffffffffffffffff1614610a2c576040517f08c379a0000000000000000000000000000000000000000000000000000000008152600401610a23906116b2565b60405180910390fd5b7f000000000000000000000000000000000000000000000000000000000000000073ffffffffffffffffffffffffffffffffffffffff166342b0b77c30868686865f6040518763ffffffff1660e01b8152600401610a8f96959493929190611747565b5f604051808303815f87803b158015610aa6575f80fd5b505af1158015610ab8573d5f803e3d5ffd5b5050505050505050565b5f8373ffffffffffffffffffffffffffffffffffffffff1663dd62ed3e30856040518363ffffffff1660e01b8152600401610afe9291906117a1565b602060405180830381865afa158015610b19573d5f803e3d5ffd5b505050506040513d601f19601f82011682018060405250810190610b3d91906117c8565b9050610b5584848484610b509190611580565b610b5b565b50505050565b5f8373ffffffffffffffffffffffffffffffffffffffff1663095ea7b38484604051602401610b8b9291906117f3565b604051602081830303815290604052915060e01b6020820180517bffffffffffffffffffffffffffffffffffffffffffffffffffffffff83818316178352505050509050610bd98482610c68565b610c6257610c57848573ffffffffffffffffffffffffffffffffffffffff1663095ea7b3865f604051602401610c1092919061181a565b604051602081830303815290604052915060e01b6020820180517bffffffffffffffffffffffffffffffffffffffffffffffffffffffff8381831617835250505050610cc1565b610c618482610cc1565b5b50505050565b5f805f8060205f8651602088015f8a5af192503d91505f519050828015610cb657505f8214610c9a5760018114610cb5565b5f8673ffffffffffffffffffffffffffffffffffffffff163b115b5b935050505092915050565b5f8060205f8451602086015f885af180610ce0576040513d5f823e3d81fd5b3d92505f519150505f8214610cf9576001811415610d14565b5f8473ffffffffffffffffffffffffffffffffffffffff163b145b15610d5657836040517f5274afe7000000000000000000000000000000000000000000000000000000008152600401610d4d9190610fe0565b60405180910390fd5b50505050565b5f73ffffffffffffffffffffffffffffffffffffffff82169050919050565b5f819050919050565b5f610d9e610d99610d9484610d5c565b610d7b565b610d5c565b9050919050565b5f610daf82610d84565b9050919050565b5f610dc082610da5565b9050919050565b610dd081610db6565b82525050565b5f602082019050610de95f830184610dc7565b92915050565b5f610df982610da5565b9050919050565b610e0981610def565b82525050565b5f602082019050610e225f830184610e00565b92915050565b5f604051905090565b5f80fd5b5f80fd5b5f610e4382610d5c565b9050919050565b610e5381610e39565b8114610e5d575f80fd5b50565b5f81359050610e6e81610e4a565b92915050565b5f819050919050565b610e8681610e74565b8114610e90575f80fd5b50565b5f81359050610ea181610e7d565b92915050565b5f80fd5b5f80fd5b5f80fd5b5f8083601f840112610ec857610ec7610ea7565b5b8235905067ffffffffffffffff811115610ee557610ee4610eab565b5b602083019150836001820283011115610f0157610f00610eaf565b5b9250929050565b5f805f805f8060a08789031215610f2257610f21610e31565b5b5f610f2f89828a01610e60565b9650506020610f4089828a01610e93565b9550506040610f5189828a01610e93565b9450506060610f6289828a01610e60565b935050608087013567ffffffffffffffff811115610f8357610f82610e35565b5b610f8f89828a01610eb3565b92509250509295509295509295565b5f8115159050919050565b610fb281610f9e565b82525050565b5f602082019050610fcb5f830184610fa9565b92915050565b610fda81610e39565b82525050565b5f602082019050610ff35f830184610fd1565b92915050565b5f805f806060858703121561101157611010610e31565b5b5f61101e87828801610e60565b945050602061102f87828801610e93565b935050604085013567ffffffffffffffff8111156110505761104f610e35565b5b61105c87828801610eb3565b925092505092959194509250565b5f61107482610da5565b9050919050565b6110848161106a565b82525050565b5f60208201905061109d5f83018461107b565b92915050565b5f6110ad82610e39565b9050919050565b6110bd816110a3565b81146110c7575f80fd5b50565b5f815190506110d8816110b4565b92915050565b5f602082840312156110f3576110f2610e31565b5b5f611100848285016110ca565b91505092915050565b5f82825260208201905092915050565b7f556e74727573746564206c656e646572000000000000000000000000000000005f82015250565b5f61114d601083611109565b915061115882611119565b602082019050919050565b5f6020820190508181035f83015261117a81611141565b9050919050565b7f556e7472757374656420696e69746961746f72000000000000000000000000005f82015250565b5f6111b5601383611109565b91506111c082611181565b602082019050919050565b5f6020820190508181035f8301526111e2816111a9565b9050919050565b6111f281610f9e565b81146111fc575f80fd5b50565b5f8135905061120d816111e9565b92915050565b5f80fd5b5f601f19601f8301169050919050565b7f4e487b71000000000000000000000000000000000000000000000000000000005f52604160045260245ffd5b61125d82611217565b810181811067ffffffffffffffff8211171561127c5761127b611227565b5b80604052505050565b5f61128e610e28565b905061129a8282611254565b919050565b5f60a082840312156112b4576112b3611213565b5b6112be60a0611285565b90505f6112cd84828501610e60565b5f8301525060206112e084828501610e60565b60208301525060406112f484828501610e60565b604083015250606061130884828501610e60565b606083015250608061131c84828501610e93565b60808301525092915050565b5f8060c0838503121561133e5761133d610e31565b5b5f61134b858286016111ff565b925050602061135c8582860161129f565b9150509250929050565b61136f81610e39565b82525050565b61137e81610e74565b82525050565b60a082015f8201516113985f850182611366565b5060208201516113ab6020850182611366565b5060408201516113be6040850182611366565b5060608201516113d16060850182611366565b5060808201516113e46080850182611375565b50505050565b6113f381610e74565b82525050565b5f819050919050565b5f61141c611417611412846113f9565b610d7b565b610e74565b9050919050565b61142c81611402565b82525050565b5f82825260208201905092915050565b50565b5f6114505f83611432565b915061145b82611442565b5f82019050919050565b5f610120820190506114795f830187611384565b61148660a08301866113ea565b61149360c0830185611423565b6114a060e0830184610fd1565b8181036101008301526114b281611445565b905095945050505050565b5f815190506114cb81610e7d565b92915050565b5f80604083850312156114e7576114e6610e31565b5b5f6114f4858286016114bd565b9250506020611505858286016114bd565b9150509250929050565b5f610100820190506115235f830187611384565b61153060a08301866113ea565b61153d60c0830185610fd1565b61154a60e0830184610fd1565b95945050505050565b7f4e487b71000000000000000000000000000000000000000000000000000000005f52601160045260245ffd5b5f61158a82610e74565b915061159583610e74565b92508282019050808211156115ad576115ac611553565b5b92915050565b5f6020820190506115c65f8301846113ea565b92915050565b5f610100820190506115e05f830186611384565b6115ed60a08301856113ea565b6115fa60c0830184610fd1565b81810360e083015261160b81611445565b9050949350505050565b5f610120820190506116295f830188611384565b61163660a08301876113ea565b61164360c0830186611423565b61165060e0830185610fd1565b61165e610100830184610fd1565b9695505050505050565b7f4e6f74206f776e657200000000000000000000000000000000000000000000005f82015250565b5f61169c600983611109565b91506116a782611668565b602082019050919050565b5f6020820190508181035f8301526116c981611690565b9050919050565b828183375f83830152505050565b5f6116e98385611432565b93506116f68385846116d0565b6116ff83611217565b840190509392505050565b5f61ffff82169050919050565b5f61173161172c611727846113f9565b610d7b565b61170a565b9050919050565b61174181611717565b82525050565b5f60a08201905061175a5f830189610fd1565b6117676020830188610fd1565b61177460408301876113ea565b81810360608301526117878185876116de565b90506117966080830184611738565b979650505050505050565b5f6040820190506117b45f830185610fd1565b6117c16020830184610fd1565b9392505050565b5f602082840312156117dd576117dc610e31565b5b5f6117ea848285016114bd565b91505092915050565b5f6040820190506118065f830185610fd1565b61181360208301846113ea565b9392505050565b5f60408201905061182d5f830185610fd1565b61183a6020830184611423565b939250505056fea26469706673582212208e87c3643bdbbb1e9df144ed236cc8bb703464cf89df8c5929f395b030df3b0664736f6c63430008140033","opcodes":"PUSH1 0xC0 PUSH1 0x40 MSTORE CALLVALUE DUP1 ISZERO PUSH3 0x10 JUMPI PUSH0 DUP1 REVERT JUMPDEST POP PUSH1 0x40 MLOAD PUSH3 0x1A83 CODESIZE SUB DUP1 PUSH3 0x1A83 DUP4 CODECOPY DUP2 DUP2 ADD PUSH1 0x40 MSTORE DUP2 ADD SWAP1 PUSH3 0x36 SWAP2 SWAP1 PUSH3 0x14A JUMP JUMPDEST DUP2 PUSH20 0xFFFFFFFFFFFFFFFFFFFFFFFFFFFFFFFFFFFFFFFF AND PUSH1 0x80 DUP2 PUSH20 0xFFFFFFFFFFFFFFFFFFFFFFFFFFFFFFFFFFFFFFFF AND DUP2 MSTORE POP POP DUP1 PUSH20 0xFFFFFFFFFFFFFFFFFFFFFFFFFFFFFFFFFFFFFFFF AND PUSH1 0xA0 DUP2 PUSH20 0xFFFFFFFFFFFFFFFFFFFFFFFFFFFFFFFFFFFFFFFF AND DUP2 MSTORE POP POP CALLER PUSH0 DUP1 PUSH2 0x100 EXP DUP2 SLOAD DUP2 PUSH20 0xFFFFFFFFFFFFFFFFFFFFFFFFFFFFFFFFFFFFFFFF MUL NOT AND SWAP1 DUP4 PUSH20 0xFFFFFFFFFFFFFFFFFFFFFFFFFFFFFFFFFFFFFFFF AND MUL OR SWAP1 SSTORE POP POP POP PUSH3 0x18F JUMP JUMPDEST PUSH0 DUP1 REVERT JUMPDEST PUSH0 PUSH20 0xFFFFFFFFFFFFFFFFFFFFFFFFFFFFFFFFFFFFFFFF DUP3 AND SWAP1 POP SWAP2 SWAP1 POP JUMP JUMPDEST PUSH0 PUSH3 0x114 DUP3 PUSH3 0xE9 JUMP JUMPDEST SWAP1 POP SWAP2 SWAP1 POP JUMP JUMPDEST PUSH3 0x126 DUP2 PUSH3 0x108 JUMP JUMPDEST DUP2 EQ PUSH3 0x131 JUMPI PUSH0 DUP1 REVERT JUMPDEST POP JUMP JUMPDEST PUSH0 DUP2 MLOAD SWAP1 POP PUSH3 0x144 DUP2 PUSH3 0x11B JUMP JUMPDEST SWAP3 SWAP2 POP POP JUMP JUMPDEST PUSH0 DUP1 PUSH1 0x40 DUP4 DUP6 SUB SLT ISZERO PUSH3 0x163 JUMPI PUSH3 0x162 PUSH3 0xE5 JUMP JUMPDEST JUMPDEST PUSH0 PUSH3 0x172 DUP6 DUP3 DUP7 ADD PUSH3 0x134 JUMP JUMPDEST SWAP3 POP POP PUSH1 0x20 PUSH3 0x185 DUP6 DUP3 DUP7 ADD PUSH3 0x134 JUMP JUMPDEST SWAP2 POP POP SWAP3 POP SWAP3 SWAP1 POP JUMP JUMPDEST PUSH1 0x80 MLOAD PUSH1 0xA0 MLOAD PUSH2 0x1877 PUSH3 0x20C PUSH0 CODECOPY PUSH0 DUP2 DUP2 PUSH2 0x3BB ADD MSTORE DUP2 DUP2 PUSH2 0x403 ADD MSTORE DUP2 DUP2 PUSH2 0x4A4 ADD MSTORE DUP2 DUP2 PUSH2 0x5E2 ADD MSTORE DUP2 DUP2 PUSH2 0x62A ADD MSTORE DUP2 DUP2 PUSH2 0x6C3 ADD MSTORE PUSH2 0x97D ADD MSTORE PUSH0 DUP2 DUP2 PUSH2 0x1EA ADD MSTORE DUP2 DUP2 PUSH2 0x27C ADD MSTORE DUP2 DUP2 PUSH2 0x2A1 ADD MSTORE DUP2 DUP2 PUSH2 0x542 ADD MSTORE DUP2 DUP2 PUSH2 0x768 ADD MSTORE DUP2 DUP2 PUSH2 0x811 ADD MSTORE DUP2 DUP2 PUSH2 0x8E7 ADD MSTORE PUSH2 0xA2E ADD MSTORE PUSH2 0x1877 PUSH0 RETURN INVALID PUSH1 0x80 PUSH1 0x40 MSTORE PUSH1 0x4 CALLDATASIZE LT PUSH2 0x7E JUMPI PUSH0 CALLDATALOAD PUSH1 0xE0 SHR DUP1 PUSH4 0x8DA5CB5B GT PUSH2 0x4D JUMPI DUP1 PUSH4 0x8DA5CB5B EQ PUSH2 0x143 JUMPI DUP1 PUSH4 0xD1FB74A7 EQ PUSH2 0x16D JUMPI DUP1 PUSH4 0xD8FBC833 EQ PUSH2 0x195 JUMPI DUP1 PUSH4 0xDB02A889 EQ PUSH2 0x1BF JUMPI PUSH2 0x85 JUMP JUMPDEST DUP1 PUSH4 0x542975C EQ PUSH2 0x89 JUMPI DUP1 PUSH4 0x16F0115B EQ PUSH2 0xB3 JUMPI DUP1 PUSH4 0x1B11D0FF EQ PUSH2 0xDD JUMPI DUP1 PUSH4 0x7535D246 EQ PUSH2 0x119 JUMPI PUSH2 0x85 JUMP JUMPDEST CALLDATASIZE PUSH2 0x85 JUMPI STOP JUMPDEST PUSH0 DUP1 REVERT JUMPDEST CALLVALUE DUP1 ISZERO PUSH2 0x94 JUMPI PUSH0 DUP1 REVERT JUMPDEST POP PUSH2 0x9D PUSH2 0x1E7 JUMP JUMPDEST PUSH1 0x40 MLOAD PUSH2 0xAA SWAP2 SWAP1 PUSH2 0xDD6 JUMP JUMPDEST PUSH1 0x40 MLOAD DUP1 SWAP2 SUB SWAP1 RETURN JUMPDEST CALLVALUE DUP1 ISZERO PUSH2 0xBE JUMPI PUSH0 DUP1 REVERT JUMPDEST POP PUSH2 0xC7 PUSH2 0x27A JUMP JUMPDEST PUSH1 0x40 MLOAD PUSH2 0xD4 SWAP2 SWAP1 PUSH2 0xE0F JUMP JUMPDEST PUSH1 0x40 MLOAD DUP1 SWAP2 SUB SWAP1 RETURN JUMPDEST CALLVALUE DUP1 ISZERO PUSH2 0xE8 JUMPI PUSH0 DUP1 REVERT JUMPDEST POP PUSH2 0x103 PUSH1 0x4 DUP1 CALLDATASIZE SUB DUP2 ADD SWAP1 PUSH2 0xFE SWAP2 SWAP1 PUSH2 0xF08 JUMP JUMPDEST PUSH2 0x29E JUMP JUMPDEST PUSH1 0x40 MLOAD PUSH2 0x110 SWAP2 SWAP1 PUSH2 0xFB8 JUMP JUMPDEST PUSH1 0x40 MLOAD DUP1 SWAP2 SUB SWAP1 RETURN JUMPDEST CALLVALUE DUP1 ISZERO PUSH2 0x124 JUMPI PUSH0 DUP1 REVERT JUMPDEST POP PUSH2 0x12D PUSH2 0x80E JUMP JUMPDEST PUSH1 0x40 MLOAD PUSH2 0x13A SWAP2 SWAP1 PUSH2 0xE0F JUMP JUMPDEST PUSH1 0x40 MLOAD DUP1 SWAP2 SUB SWAP1 RETURN JUMPDEST CALLVALUE DUP1 ISZERO PUSH2 0x14E JUMPI PUSH0 DUP1 REVERT JUMPDEST POP PUSH2 0x157 PUSH2 0x835 JUMP JUMPDEST PUSH1 0x40 MLOAD PUSH2 0x164 SWAP2 SWAP1 PUSH2 0xFE0 JUMP JUMPDEST PUSH1 0x40 MLOAD DUP1 SWAP2 SUB SWAP1 RETURN JUMPDEST CALLVALUE DUP1 ISZERO PUSH2 0x178 JUMPI PUSH0 DUP1 REVERT JUMPDEST POP PUSH2 0x193 PUSH1 0x4 DUP1 CALLDATASIZE SUB DUP2 ADD SWAP1 PUSH2 0x18E SWAP2 SWAP1 PUSH2 0xFF9 JUMP JUMPDEST PUSH2 0x858 JUMP JUMPDEST STOP JUMPDEST CALLVALUE DUP1 ISZERO PUSH2 0x1A0 JUMPI PUSH0 DUP1 REVERT JUMPDEST POP PUSH2 0x1A9 PUSH2 0x97B JUMP JUMPDEST PUSH1 0x40 MLOAD PUSH2 0x1B6 SWAP2 SWAP1 PUSH2 0x108A JUMP JUMPDEST PUSH1 0x40 MLOAD DUP1 SWAP2 SUB SWAP1 RETURN JUMPDEST CALLVALUE DUP1 ISZERO PUSH2 0x1CA JUMPI PUSH0 DUP1 REVERT JUMPDEST POP PUSH2 0x1E5 PUSH1 0x4 DUP1 CALLDATASIZE SUB DUP2 ADD SWAP1 PUSH2 0x1E0 SWAP2 SWAP1 PUSH2 0xFF9 JUMP JUMPDEST PUSH2 0x99F JUMP JUMPDEST STOP JUMPDEST PUSH0 PUSH32 0x0 PUSH20 0xFFFFFFFFFFFFFFFFFFFFFFFFFFFFFFFFFFFFFFFF AND PUSH4 0x542975C PUSH1 0x40 MLOAD DUP2 PUSH4 0xFFFFFFFF AND PUSH1 0xE0 SHL DUP2 MSTORE PUSH1 0x4 ADD PUSH1 0x20 PUSH1 0x40 MLOAD DUP1 DUP4 SUB DUP2 DUP7 GAS STATICCALL ISZERO DUP1 ISZERO PUSH2 0x251 JUMPI RETURNDATASIZE PUSH0 DUP1 RETURNDATACOPY RETURNDATASIZE PUSH0 REVERT JUMPDEST POP POP POP POP PUSH1 0x40 MLOAD RETURNDATASIZE PUSH1 0x1F NOT PUSH1 0x1F DUP3 ADD AND DUP3 ADD DUP1 PUSH1 0x40 MSTORE POP DUP2 ADD SWAP1 PUSH2 0x275 SWAP2 SWAP1 PUSH2 0x10DE JUMP JUMPDEST SWAP1 POP SWAP1 JUMP JUMPDEST PUSH32 0x0 DUP2 JUMP JUMPDEST PUSH0 PUSH32 0x0 PUSH20 0xFFFFFFFFFFFFFFFFFFFFFFFFFFFFFFFFFFFFFFFF AND CALLER PUSH20 0xFFFFFFFFFFFFFFFFFFFFFFFFFFFFFFFFFFFFFFFF AND EQ PUSH2 0x32D JUMPI PUSH1 0x40 MLOAD PUSH32 0x8C379A000000000000000000000000000000000000000000000000000000000 DUP2 MSTORE PUSH1 0x4 ADD PUSH2 0x324 SWAP1 PUSH2 0x1163 JUMP JUMPDEST PUSH1 0x40 MLOAD DUP1 SWAP2 SUB SWAP1 REVERT JUMPDEST ADDRESS PUSH20 0xFFFFFFFFFFFFFFFFFFFFFFFFFFFFFFFFFFFFFFFF AND DUP5 PUSH20 0xFFFFFFFFFFFFFFFFFFFFFFFFFFFFFFFFFFFFFFFF AND EQ PUSH2 0x39B JUMPI PUSH1 0x40 MLOAD PUSH32 0x8C379A000000000000000000000000000000000000000000000000000000000 DUP2 MSTORE PUSH1 0x4 ADD PUSH2 0x392 SWAP1 PUSH2 0x11CB JUMP JUMPDEST PUSH1 0x40 MLOAD DUP1 SWAP2 SUB SWAP1 REVERT JUMPDEST PUSH0 DUP1 DUP5 DUP5 DUP2 ADD SWAP1 PUSH2 0x3AC SWAP2 SWAP1 PUSH2 0x1328 JUMP JUMPDEST SWAP2 POP SWAP2 POP DUP2 ISZERO PUSH2 0x5DD JUMPI PUSH2 0x401 PUSH32 0x0 DUP10 DUP12 PUSH20 0xFFFFFFFFFFFFFFFFFFFFFFFFFFFFFFFFFFFFFFFF AND PUSH2 0xAC2 SWAP1 SWAP3 SWAP2 SWAP1 PUSH4 0xFFFFFFFF AND JUMP JUMPDEST PUSH32 0x0 PUSH20 0xFFFFFFFFFFFFFFFFFFFFFFFFFFFFFFFFFFFFFFFF AND PUSH4 0x20B76E81 DUP3 DUP11 PUSH0 ADDRESS PUSH1 0x40 MLOAD DUP6 PUSH4 0xFFFFFFFF AND PUSH1 0xE0 SHL DUP2 MSTORE PUSH1 0x4 ADD PUSH2 0x460 SWAP5 SWAP4 SWAP3 SWAP2 SWAP1 PUSH2 0x1465 JUMP JUMPDEST PUSH1 0x40 DUP1 MLOAD DUP1 DUP4 SUB DUP2 PUSH0 DUP8 GAS CALL ISZERO DUP1 ISZERO PUSH2 0x47B JUMPI RETURNDATASIZE PUSH0 DUP1 RETURNDATACOPY RETURNDATASIZE PUSH0 REVERT JUMPDEST POP POP POP POP PUSH1 0x40 MLOAD RETURNDATASIZE PUSH1 0x1F NOT PUSH1 0x1F DUP3 ADD AND DUP3 ADD DUP1 PUSH1 0x40 MSTORE POP DUP2 ADD SWAP1 PUSH2 0x49F SWAP2 SWAP1 PUSH2 0x14D1 JUMP JUMPDEST POP POP PUSH0 PUSH32 0x0 PUSH20 0xFFFFFFFFFFFFFFFFFFFFFFFFFFFFFFFFFFFFFFFF AND PUSH4 0x8720316D DUP4 DUP4 ADDRESS ADDRESS PUSH1 0x40 MLOAD DUP6 PUSH4 0xFFFFFFFF AND PUSH1 0xE0 SHL DUP2 MSTORE PUSH1 0x4 ADD PUSH2 0x501 SWAP5 SWAP4 SWAP3 SWAP2 SWAP1 PUSH2 0x150F JUMP JUMPDEST PUSH0 PUSH1 0x40 MLOAD DUP1 DUP4 SUB DUP2 PUSH0 DUP8 DUP1 EXTCODESIZE ISZERO DUP1 ISZERO PUSH2 0x518 JUMPI PUSH0 DUP1 REVERT JUMPDEST POP GAS CALL ISZERO DUP1 ISZERO PUSH2 0x52A JUMPI RETURNDATASIZE PUSH0 DUP1 RETURNDATACOPY RETURNDATASIZE PUSH0 REVERT JUMPDEST POP POP POP POP PUSH0 DUP9 DUP11 PUSH2 0x53B SWAP2 SWAP1 PUSH2 0x1580 JUMP JUMPDEST SWAP1 POP PUSH2 0x588 PUSH32 0x0 DUP3 DUP14 PUSH20 0xFFFFFFFFFFFFFFFFFFFFFFFFFFFFFFFFFFFFFFFF AND PUSH2 0xAC2 SWAP1 SWAP3 SWAP2 SWAP1 PUSH4 0xFFFFFFFF AND JUMP JUMPDEST DUP11 PUSH20 0xFFFFFFFFFFFFFFFFFFFFFFFFFFFFFFFFFFFFFFFF AND PUSH32 0x37449A181446B868CC96D3EDB3F69B74EEF3C7E3AD6B9911C29ABA7F8D779D6F DUP12 PUSH1 0x40 MLOAD PUSH2 0x5CE SWAP2 SWAP1 PUSH2 0x15B3 JUMP JUMPDEST PUSH1 0x40 MLOAD DUP1 SWAP2 SUB SWAP1 LOG2 POP POP PUSH2 0x7FE JUMP JUMPDEST PUSH2 0x628 PUSH32 0x0 DUP10 DUP12 PUSH20 0xFFFFFFFFFFFFFFFFFFFFFFFFFFFFFFFFFFFFFFFF AND PUSH2 0xAC2 SWAP1 SWAP3 SWAP2 SWAP1 PUSH4 0xFFFFFFFF AND JUMP JUMPDEST PUSH32 0x0 PUSH20 0xFFFFFFFFFFFFFFFFFFFFFFFFFFFFFFFFFFFFFFFF AND PUSH4 0x238D6579 DUP3 DUP11 ADDRESS PUSH1 0x40 MLOAD DUP5 PUSH4 0xFFFFFFFF AND PUSH1 0xE0 SHL DUP2 MSTORE PUSH1 0x4 ADD PUSH2 0x685 SWAP4 SWAP3 SWAP2 SWAP1 PUSH2 0x15CC JUMP JUMPDEST PUSH0 PUSH1 0x40 MLOAD DUP1 DUP4 SUB DUP2 PUSH0 DUP8 DUP1 EXTCODESIZE ISZERO DUP1 ISZERO PUSH2 0x69C JUMPI PUSH0 DUP1 REVERT JUMPDEST POP GAS CALL ISZERO DUP1 ISZERO PUSH2 0x6AE JUMPI RETURNDATASIZE PUSH0 DUP1 RETURNDATACOPY RETURNDATASIZE PUSH0 REVERT JUMPDEST POP POP POP POP PUSH0 DUP8 DUP10 PUSH2 0x6BF SWAP2 SWAP1 PUSH2 0x1580 JUMP JUMPDEST SWAP1 POP PUSH32 0x0 PUSH20 0xFFFFFFFFFFFFFFFFFFFFFFFFFFFFFFFFFFFFFFFF AND PUSH4 0x50D8CD4B DUP4 DUP4 PUSH0 ADDRESS ADDRESS PUSH1 0x40 MLOAD DUP7 PUSH4 0xFFFFFFFF AND PUSH1 0xE0 SHL DUP2 MSTORE PUSH1 0x4 ADD PUSH2 0x722 SWAP6 SWAP5 SWAP4 SWAP3 SWAP2 SWAP1 PUSH2 0x1615 JUMP JUMPDEST PUSH1 0x40 DUP1 MLOAD DUP1 DUP4 SUB DUP2 PUSH0 DUP8 GAS CALL ISZERO DUP1 ISZERO PUSH2 0x73D JUMPI RETURNDATASIZE PUSH0 DUP1 RETURNDATACOPY RETURNDATASIZE PUSH0 REVERT JUMPDEST POP POP POP POP PUSH1 0x40 MLOAD RETURNDATASIZE PUSH1 0x1F NOT PUSH1 0x1F DUP3 ADD AND DUP3 ADD DUP1 PUSH1 0x40 MSTORE POP DUP2 ADD SWAP1 PUSH2 0x761 SWAP2 SWAP1 PUSH2 0x14D1 JUMP JUMPDEST POP POP PUSH2 0x7AE PUSH32 0x0 DUP3 DUP13 PUSH20 0xFFFFFFFFFFFFFFFFFFFFFFFFFFFFFFFFFFFFFFFF AND PUSH2 0xAC2 SWAP1 SWAP3 SWAP2 SWAP1 PUSH4 0xFFFFFFFF AND JUMP JUMPDEST DUP10 PUSH20 0xFFFFFFFFFFFFFFFFFFFFFFFFFFFFFFFFFFFFFFFF AND PUSH32 0x62A093031552467F4715CCC918EEFD1542F0DF0441AA3AD4929A477F41CB56F5 DUP11 PUSH1 0x40 MLOAD PUSH2 0x7F4 SWAP2 SWAP1 PUSH2 0x15B3 JUMP JUMPDEST PUSH1 0x40 MLOAD DUP1 SWAP2 SUB SWAP1 LOG2 POP JUMPDEST PUSH1 0x1 SWAP3 POP POP POP SWAP7 SWAP6 POP POP POP POP POP POP JUMP JUMPDEST PUSH0 PUSH32 0x0 SWAP1 POP SWAP1 JUMP JUMPDEST PUSH0 DUP1 SLOAD SWAP1 PUSH2 0x100 EXP SWAP1 DIV PUSH20 0xFFFFFFFFFFFFFFFFFFFFFFFFFFFFFFFFFFFFFFFF AND DUP2 JUMP JUMPDEST PUSH0 DUP1 SLOAD SWAP1 PUSH2 0x100 EXP SWAP1 DIV PUSH20 0xFFFFFFFFFFFFFFFFFFFFFFFFFFFFFFFFFFFFFFFF AND PUSH20 0xFFFFFFFFFFFFFFFFFFFFFFFFFFFFFFFFFFFFFFFF AND CALLER PUSH20 0xFFFFFFFFFFFFFFFFFFFFFFFFFFFFFFFFFFFFFFFF AND EQ PUSH2 0x8E5 JUMPI PUSH1 0x40 MLOAD PUSH32 0x8C379A000000000000000000000000000000000000000000000000000000000 DUP2 MSTORE PUSH1 0x4 ADD PUSH2 0x8DC SWAP1 PUSH2 0x16B2 JUMP JUMPDEST PUSH1 0x40 MLOAD DUP1 SWAP2 SUB SWAP1 REVERT JUMPDEST PUSH32 0x0 PUSH20 0xFFFFFFFFFFFFFFFFFFFFFFFFFFFFFFFFFFFFFFFF AND PUSH4 0x42B0B77C ADDRESS DUP7 DUP7 DUP7 DUP7 PUSH0 PUSH1 0x40 MLOAD DUP8 PUSH4 0xFFFFFFFF AND PUSH1 0xE0 SHL DUP2 MSTORE PUSH1 0x4 ADD PUSH2 0x948 SWAP7 SWAP6 SWAP5 SWAP4 SWAP3 SWAP2 SWAP1 PUSH2 0x1747 JUMP JUMPDEST PUSH0 PUSH1 0x40 MLOAD DUP1 DUP4 SUB DUP2 PUSH0 DUP8 DUP1 EXTCODESIZE ISZERO DUP1 ISZERO PUSH2 0x95F JUMPI PUSH0 DUP1 REVERT JUMPDEST POP GAS CALL ISZERO DUP1 ISZERO PUSH2 0x971 JUMPI RETURNDATASIZE PUSH0 DUP1 RETURNDATACOPY RETURNDATASIZE PUSH0 REVERT JUMPDEST POP POP POP POP POP POP POP POP JUMP JUMPDEST PUSH32 0x0 DUP2 JUMP JUMPDEST PUSH0 DUP1 SLOAD SWAP1 PUSH2 0x100 EXP SWAP1 DIV PUSH20 0xFFFFFFFFFFFFFFFFFFFFFFFFFFFFFFFFFFFFFFFF AND PUSH20 0xFFFFFFFFFFFFFFFFFFFFFFFFFFFFFFFFFFFFFFFF AND CALLER PUSH20 0xFFFFFFFFFFFFFFFFFFFFFFFFFFFFFFFFFFFFFFFF AND EQ PUSH2 0xA2C JUMPI PUSH1 0x40 MLOAD PUSH32 0x8C379A000000000000000000000000000000000000000000000000000000000 DUP2 MSTORE PUSH1 0x4 ADD PUSH2 0xA23 SWAP1 PUSH2 0x16B2 JUMP JUMPDEST PUSH1 0x40 MLOAD DUP1 SWAP2 SUB SWAP1 REVERT JUMPDEST PUSH32 0x0 PUSH20 0xFFFFFFFFFFFFFFFFFFFFFFFFFFFFFFFFFFFFFFFF AND PUSH4 0x42B0B77C ADDRESS DUP7 DUP7 DUP7 DUP7 PUSH0 PUSH1 0x40 MLOAD DUP8 PUSH4 0xFFFFFFFF AND PUSH1 0xE0 SHL DUP2 MSTORE PUSH1 0x4 ADD PUSH2 0xA8F SWAP7 SWAP6 SWAP5 SWAP4 SWAP3 SWAP2 SWAP1 PUSH2 0x1747 JUMP JUMPDEST PUSH0 PUSH1 0x40 MLOAD DUP1 DUP4 SUB DUP2 PUSH0 DUP8 DUP1 EXTCODESIZE ISZERO DUP1 ISZERO PUSH2 0xAA6 JUMPI PUSH0 DUP1 REVERT JUMPDEST POP GAS CALL ISZERO DUP1 ISZERO PUSH2 0xAB8 JUMPI RETURNDATASIZE PUSH0 DUP1 RETURNDATACOPY RETURNDATASIZE PUSH0 REVERT JUMPDEST POP POP POP POP POP POP POP POP JUMP JUMPDEST PUSH0 DUP4 PUSH20 0xFFFFFFFFFFFFFFFFFFFFFFFFFFFFFFFFFFFFFFFF AND PUSH4 0xDD62ED3E ADDRESS DUP6 PUSH1 0x40 MLOAD DUP4 PUSH4 0xFFFFFFFF AND PUSH1 0xE0 SHL DUP2 MSTORE PUSH1 0x4 ADD PUSH2 0xAFE SWAP3 SWAP2 SWAP1 PUSH2 0x17A1 JUMP JUMPDEST PUSH1 0x20 PUSH1 0x40 MLOAD DUP1 DUP4 SUB DUP2 DUP7 GAS STATICCALL ISZERO DUP1 ISZERO PUSH2 0xB19 JUMPI RETURNDATASIZE PUSH0 DUP1 RETURNDATACOPY RETURNDATASIZE PUSH0 REVERT JUMPDEST POP POP POP POP PUSH1 0x40 MLOAD RETURNDATASIZE PUSH1 0x1F NOT PUSH1 0x1F DUP3 ADD AND DUP3 ADD DUP1 PUSH1 0x40 MSTORE POP DUP2 ADD SWAP1 PUSH2 0xB3D SWAP2 SWAP1 PUSH2 0x17C8 JUMP JUMPDEST SWAP1 POP PUSH2 0xB55 DUP5 DUP5 DUP5 DUP5 PUSH2 0xB50 SWAP2 SWAP1 PUSH2 0x1580 JUMP JUMPDEST PUSH2 0xB5B JUMP JUMPDEST POP POP POP POP JUMP JUMPDEST PUSH0 DUP4 PUSH20 0xFFFFFFFFFFFFFFFFFFFFFFFFFFFFFFFFFFFFFFFF AND PUSH4 0x95EA7B3 DUP5 DUP5 PUSH1 0x40 MLOAD PUSH1 0x24 ADD PUSH2 0xB8B SWAP3 SWAP2 SWAP1 PUSH2 0x17F3 JUMP JUMPDEST PUSH1 0x40 MLOAD PUSH1 0x20 DUP2 DUP4 SUB SUB DUP2 MSTORE SWAP1 PUSH1 0x40 MSTORE SWAP2 POP PUSH1 0xE0 SHL PUSH1 0x20 DUP3 ADD DUP1 MLOAD PUSH28 0xFFFFFFFFFFFFFFFFFFFFFFFFFFFFFFFFFFFFFFFFFFFFFFFFFFFFFFFF DUP4 DUP2 DUP4 AND OR DUP4 MSTORE POP POP POP POP SWAP1 POP PUSH2 0xBD9 DUP5 DUP3 PUSH2 0xC68 JUMP JUMPDEST PUSH2 0xC62 JUMPI PUSH2 0xC57 DUP5 DUP6 PUSH20 0xFFFFFFFFFFFFFFFFFFFFFFFFFFFFFFFFFFFFFFFF AND PUSH4 0x95EA7B3 DUP7 PUSH0 PUSH1 0x40 MLOAD PUSH1 0x24 ADD PUSH2 0xC10 SWAP3 SWAP2 SWAP1 PUSH2 0x181A JUMP JUMPDEST PUSH1 0x40 MLOAD PUSH1 0x20 DUP2 DUP4 SUB SUB DUP2 MSTORE SWAP1 PUSH1 0x40 MSTORE SWAP2 POP PUSH1 0xE0 SHL PUSH1 0x20 DUP3 ADD DUP1 MLOAD PUSH28 0xFFFFFFFFFFFFFFFFFFFFFFFFFFFFFFFFFFFFFFFFFFFFFFFFFFFFFFFF DUP4 DUP2 DUP4 AND OR DUP4 MSTORE POP POP POP POP PUSH2 0xCC1 JUMP JUMPDEST PUSH2 0xC61 DUP5 DUP3 PUSH2 0xCC1 JUMP JUMPDEST JUMPDEST POP POP POP POP JUMP JUMPDEST PUSH0 DUP1 PUSH0 DUP1 PUSH1 0x20 PUSH0 DUP7 MLOAD PUSH1 0x20 DUP9 ADD PUSH0 DUP11 GAS CALL SWAP3 POP RETURNDATASIZE SWAP2 POP PUSH0 MLOAD SWAP1 POP DUP3 DUP1 ISZERO PUSH2 0xCB6 JUMPI POP PUSH0 DUP3 EQ PUSH2 0xC9A JUMPI PUSH1 0x1 DUP2 EQ PUSH2 0xCB5 JUMP JUMPDEST PUSH0 DUP7 PUSH20 0xFFFFFFFFFFFFFFFFFFFFFFFFFFFFFFFFFFFFFFFF AND EXTCODESIZE GT JUMPDEST JUMPDEST SWAP4 POP POP POP POP SWAP3 SWAP2 POP POP JUMP JUMPDEST PUSH0 DUP1 PUSH1 0x20 PUSH0 DUP5 MLOAD PUSH1 0x20 DUP7 ADD PUSH0 DUP9 GAS CALL DUP1 PUSH2 0xCE0 JUMPI PUSH1 0x40 MLOAD RETURNDATASIZE PUSH0 DUP3 RETURNDATACOPY RETURNDATASIZE DUP2 REVERT JUMPDEST RETURNDATASIZE SWAP3 POP PUSH0 MLOAD SWAP2 POP POP PUSH0 DUP3 EQ PUSH2 0xCF9 JUMPI PUSH1 0x1 DUP2 EQ ISZERO PUSH2 0xD14 JUMP JUMPDEST PUSH0 DUP5 PUSH20 0xFFFFFFFFFFFFFFFFFFFFFFFFFFFFFFFFFFFFFFFF AND EXTCODESIZE EQ JUMPDEST ISZERO PUSH2 0xD56 JUMPI DUP4 PUSH1 0x40 MLOAD PUSH32 0x5274AFE700000000000000000000000000000000000000000000000000000000 DUP2 MSTORE PUSH1 0x4 ADD PUSH2 0xD4D SWAP2 SWAP1 PUSH2 0xFE0 JUMP JUMPDEST PUSH1 0x40 MLOAD DUP1 SWAP2 SUB SWAP1 REVERT JUMPDEST POP POP POP POP JUMP JUMPDEST PUSH0 PUSH20 0xFFFFFFFFFFFFFFFFFFFFFFFFFFFFFFFFFFFFFFFF DUP3 AND SWAP1 POP SWAP2 SWAP1 POP JUMP JUMPDEST PUSH0 DUP2 SWAP1 POP SWAP2 SWAP1 POP JUMP JUMPDEST PUSH0 PUSH2 0xD9E PUSH2 0xD99 PUSH2 0xD94 DUP5 PUSH2 0xD5C JUMP JUMPDEST PUSH2 0xD7B JUMP JUMPDEST PUSH2 0xD5C JUMP JUMPDEST SWAP1 POP SWAP2 SWAP1 POP JUMP JUMPDEST PUSH0 PUSH2 0xDAF DUP3 PUSH2 0xD84 JUMP JUMPDEST SWAP1 POP SWAP2 SWAP1 POP JUMP JUMPDEST PUSH0 PUSH2 0xDC0 DUP3 PUSH2 0xDA5 JUMP JUMPDEST SWAP1 POP SWAP2 SWAP1 POP JUMP JUMPDEST PUSH2 0xDD0 DUP2 PUSH2 0xDB6 JUMP JUMPDEST DUP3 MSTORE POP POP JUMP JUMPDEST PUSH0 PUSH1 0x20 DUP3 ADD SWAP1 POP PUSH2 0xDE9 PUSH0 DUP4 ADD DUP5 PUSH2 0xDC7 JUMP JUMPDEST SWAP3 SWAP2 POP POP JUMP JUMPDEST PUSH0 PUSH2 0xDF9 DUP3 PUSH2 0xDA5 JUMP JUMPDEST SWAP1 POP SWAP2 SWAP1 POP JUMP JUMPDEST PUSH2 0xE09 DUP2 PUSH2 0xDEF JUMP JUMPDEST DUP3 MSTORE POP POP JUMP JUMPDEST PUSH0 PUSH1 0x20 DUP3 ADD SWAP1 POP PUSH2 0xE22 PUSH0 DUP4 ADD DUP5 PUSH2 0xE00 JUMP JUMPDEST SWAP3 SWAP2 POP POP JUMP JUMPDEST PUSH0 PUSH1 0x40 MLOAD SWAP1 POP SWAP1 JUMP JUMPDEST PUSH0 DUP1 REVERT JUMPDEST PUSH0 DUP1 REVERT JUMPDEST PUSH0 PUSH2 0xE43 DUP3 PUSH2 0xD5C JUMP JUMPDEST SWAP1 POP SWAP2 SWAP1 POP JUMP JUMPDEST PUSH2 0xE53 DUP2 PUSH2 0xE39 JUMP JUMPDEST DUP2 EQ PUSH2 0xE5D JUMPI PUSH0 DUP1 REVERT JUMPDEST POP JUMP JUMPDEST PUSH0 DUP2 CALLDATALOAD SWAP1 POP PUSH2 0xE6E DUP2 PUSH2 0xE4A JUMP JUMPDEST SWAP3 SWAP2 POP POP JUMP JUMPDEST PUSH0 DUP2 SWAP1 POP SWAP2 SWAP1 POP JUMP JUMPDEST PUSH2 0xE86 DUP2 PUSH2 0xE74 JUMP JUMPDEST DUP2 EQ PUSH2 0xE90 JUMPI PUSH0 DUP1 REVERT JUMPDEST POP JUMP JUMPDEST PUSH0 DUP2 CALLDATALOAD SWAP1 POP PUSH2 0xEA1 DUP2 PUSH2 0xE7D JUMP JUMPDEST SWAP3 SWAP2 POP POP JUMP JUMPDEST PUSH0 DUP1 REVERT JUMPDEST PUSH0 DUP1 REVERT JUMPDEST PUSH0 DUP1 REVERT JUMPDEST PUSH0 DUP1 DUP4 PUSH1 0x1F DUP5 ADD SLT PUSH2 0xEC8 JUMPI PUSH2 0xEC7 PUSH2 0xEA7 JUMP JUMPDEST JUMPDEST DUP3 CALLDATALOAD SWAP1 POP PUSH8 0xFFFFFFFFFFFFFFFF DUP2 GT ISZERO PUSH2 0xEE5 JUMPI PUSH2 0xEE4 PUSH2 0xEAB JUMP JUMPDEST JUMPDEST PUSH1 0x20 DUP4 ADD SWAP2 POP DUP4 PUSH1 0x1 DUP3 MUL DUP4 ADD GT ISZERO PUSH2 0xF01 JUMPI PUSH2 0xF00 PUSH2 0xEAF JUMP JUMPDEST JUMPDEST SWAP3 POP SWAP3 SWAP1 POP JUMP JUMPDEST PUSH0 DUP1 PUSH0 DUP1 PUSH0 DUP1 PUSH1 0xA0 DUP8 DUP10 SUB SLT ISZERO PUSH2 0xF22 JUMPI PUSH2 0xF21 PUSH2 0xE31 JUMP JUMPDEST JUMPDEST PUSH0 PUSH2 0xF2F DUP10 DUP3 DUP11 ADD PUSH2 0xE60 JUMP JUMPDEST SWAP7 POP POP PUSH1 0x20 PUSH2 0xF40 DUP10 DUP3 DUP11 ADD PUSH2 0xE93 JUMP JUMPDEST SWAP6 POP POP PUSH1 0x40 PUSH2 0xF51 DUP10 DUP3 DUP11 ADD PUSH2 0xE93 JUMP JUMPDEST SWAP5 POP POP PUSH1 0x60 PUSH2 0xF62 DUP10 DUP3 DUP11 ADD PUSH2 0xE60 JUMP JUMPDEST SWAP4 POP POP PUSH1 0x80 DUP8 ADD CALLDATALOAD PUSH8 0xFFFFFFFFFFFFFFFF DUP2 GT ISZERO PUSH2 0xF83 JUMPI PUSH2 0xF82 PUSH2 0xE35 JUMP JUMPDEST JUMPDEST PUSH2 0xF8F DUP10 DUP3 DUP11 ADD PUSH2 0xEB3 JUMP JUMPDEST SWAP3 POP SWAP3 POP POP SWAP3 SWAP6 POP SWAP3 SWAP6 POP SWAP3 SWAP6 JUMP JUMPDEST PUSH0 DUP2 ISZERO ISZERO SWAP1 POP SWAP2 SWAP1 POP JUMP JUMPDEST PUSH2 0xFB2 DUP2 PUSH2 0xF9E JUMP JUMPDEST DUP3 MSTORE POP POP JUMP JUMPDEST PUSH0 PUSH1 0x20 DUP3 ADD SWAP1 POP PUSH2 0xFCB PUSH0 DUP4 ADD DUP5 PUSH2 0xFA9 JUMP JUMPDEST SWAP3 SWAP2 POP POP JUMP JUMPDEST PUSH2 0xFDA DUP2 PUSH2 0xE39 JUMP JUMPDEST DUP3 MSTORE POP POP JUMP JUMPDEST PUSH0 PUSH1 0x20 DUP3 ADD SWAP1 POP PUSH2 0xFF3 PUSH0 DUP4 ADD DUP5 PUSH2 0xFD1 JUMP JUMPDEST SWAP3 SWAP2 POP POP JUMP JUMPDEST PUSH0 DUP1 PUSH0 DUP1 PUSH1 0x60 DUP6 DUP8 SUB SLT ISZERO PUSH2 0x1011 JUMPI PUSH2 0x1010 PUSH2 0xE31 JUMP JUMPDEST JUMPDEST PUSH0 PUSH2 0x101E DUP8 DUP3 DUP9 ADD PUSH2 0xE60 JUMP JUMPDEST SWAP5 POP POP PUSH1 0x20 PUSH2 0x102F DUP8 DUP3 DUP9 ADD PUSH2 0xE93 JUMP JUMPDEST SWAP4 POP POP PUSH1 0x40 DUP6 ADD CALLDATALOAD PUSH8 0xFFFFFFFFFFFFFFFF DUP2 GT ISZERO PUSH2 0x1050 JUMPI PUSH2 0x104F PUSH2 0xE35 JUMP JUMPDEST JUMPDEST PUSH2 0x105C DUP8 DUP3 DUP9 ADD PUSH2 0xEB3 JUMP JUMPDEST SWAP3 POP SWAP3 POP POP SWAP3 SWAP6 SWAP2 SWAP5 POP SWAP3 POP JUMP JUMPDEST PUSH0 PUSH2 0x1074 DUP3 PUSH2 0xDA5 JUMP JUMPDEST SWAP1 POP SWAP2 SWAP1 POP JUMP JUMPDEST PUSH2 0x1084 DUP2 PUSH2 0x106A JUMP JUMPDEST DUP3 MSTORE POP POP JUMP JUMPDEST PUSH0 PUSH1 0x20 DUP3 ADD SWAP1 POP PUSH2 0x109D PUSH0 DUP4 ADD DUP5 PUSH2 0x107B JUMP JUMPDEST SWAP3 SWAP2 POP POP JUMP JUMPDEST PUSH0 PUSH2 0x10AD DUP3 PUSH2 0xE39 JUMP JUMPDEST SWAP1 POP SWAP2 SWAP1 POP JUMP JUMPDEST PUSH2 0x10BD DUP2 PUSH2 0x10A3 JUMP JUMPDEST DUP2 EQ PUSH2 0x10C7 JUMPI PUSH0 DUP1 REVERT JUMPDEST POP JUMP JUMPDEST PUSH0 DUP2 MLOAD SWAP1 POP PUSH2 0x10D8 DUP2 PUSH2 0x10B4 JUMP JUMPDEST SWAP3 SWAP2 POP POP JUMP JUMPDEST PUSH0 PUSH1 0x20 DUP3 DUP5 SUB SLT ISZERO PUSH2 0x10F3 JUMPI PUSH2 0x10F2 PUSH2 0xE31 JUMP JUMPDEST JUMPDEST PUSH0 PUSH2 0x1100 DUP5 DUP3 DUP6 ADD PUSH2 0x10CA JUMP JUMPDEST SWAP2 POP POP SWAP3 SWAP2 POP POP JUMP JUMPDEST PUSH0 DUP3 DUP3 MSTORE PUSH1 0x20 DUP3 ADD SWAP1 POP SWAP3 SWAP2 POP POP JUMP JUMPDEST PUSH32 0x556E74727573746564206C656E64657200000000000000000000000000000000 PUSH0 DUP3 ADD MSTORE POP JUMP JUMPDEST PUSH0 PUSH2 0x114D PUSH1 0x10 DUP4 PUSH2 0x1109 JUMP JUMPDEST SWAP2 POP PUSH2 0x1158 DUP3 PUSH2 0x1119 JUMP JUMPDEST PUSH1 0x20 DUP3 ADD SWAP1 POP SWAP2 SWAP1 POP JUMP JUMPDEST PUSH0 PUSH1 0x20 DUP3 ADD SWAP1 POP DUP2 DUP2 SUB PUSH0 DUP4 ADD MSTORE PUSH2 0x117A DUP2 PUSH2 0x1141 JUMP JUMPDEST SWAP1 POP SWAP2 SWAP1 POP JUMP JUMPDEST PUSH32 0x556E7472757374656420696E69746961746F7200000000000000000000000000 PUSH0 DUP3 ADD MSTORE POP JUMP JUMPDEST PUSH0 PUSH2 0x11B5 PUSH1 0x13 DUP4 PUSH2 0x1109 JUMP JUMPDEST SWAP2 POP PUSH2 0x11C0 DUP3 PUSH2 0x1181 JUMP JUMPDEST PUSH1 0x20 DUP3 ADD SWAP1 POP SWAP2 SWAP1 POP JUMP JUMPDEST PUSH0 PUSH1 0x20 DUP3 ADD SWAP1 POP DUP2 DUP2 SUB PUSH0 DUP4 ADD MSTORE PUSH2 0x11E2 DUP2 PUSH2 0x11A9 JUMP JUMPDEST SWAP1 POP SWAP2 SWAP1 POP JUMP JUMPDEST PUSH2 0x11F2 DUP2 PUSH2 0xF9E JUMP JUMPDEST DUP2 EQ PUSH2 0x11FC JUMPI PUSH0 DUP1 REVERT JUMPDEST POP JUMP JUMPDEST PUSH0 DUP2 CALLDATALOAD SWAP1 POP PUSH2 0x120D DUP2 PUSH2 0x11E9 JUMP JUMPDEST SWAP3 SWAP2 POP POP JUMP JUMPDEST PUSH0 DUP1 REVERT JUMPDEST PUSH0 PUSH1 0x1F NOT PUSH1 0x1F DUP4 ADD AND SWAP1 POP SWAP2 SWAP1 POP JUMP JUMPDEST PUSH32 0x4E487B7100000000000000000000000000000000000000000000000000000000 PUSH0 MSTORE PUSH1 0x41 PUSH1 0x4 MSTORE PUSH1 0x24 PUSH0 REVERT JUMPDEST PUSH2 0x125D DUP3 PUSH2 0x1217 JUMP JUMPDEST DUP2 ADD DUP2 DUP2 LT PUSH8 0xFFFFFFFFFFFFFFFF DUP3 GT OR ISZERO PUSH2 0x127C JUMPI PUSH2 0x127B PUSH2 0x1227 JUMP JUMPDEST JUMPDEST DUP1 PUSH1 0x40 MSTORE POP POP POP JUMP JUMPDEST PUSH0 PUSH2 0x128E PUSH2 0xE28 JUMP JUMPDEST SWAP1 POP PUSH2 0x129A DUP3 DUP3 PUSH2 0x1254 JUMP JUMPDEST SWAP2 SWAP1 POP JUMP JUMPDEST PUSH0 PUSH1 0xA0 DUP3 DUP5 SUB SLT ISZERO PUSH2 0x12B4 JUMPI PUSH2 0x12B3 PUSH2 0x1213 JUMP JUMPDEST JUMPDEST PUSH2 0x12BE PUSH1 0xA0 PUSH2 0x1285 JUMP JUMPDEST SWAP1 POP PUSH0 PUSH2 0x12CD DUP5 DUP3 DUP6 ADD PUSH2 0xE60 JUMP JUMPDEST PUSH0 DUP4 ADD MSTORE POP PUSH1 0x20 PUSH2 0x12E0 DUP5 DUP3 DUP6 ADD PUSH2 0xE60 JUMP JUMPDEST PUSH1 0x20 DUP4 ADD MSTORE POP PUSH1 0x40 PUSH2 0x12F4 DUP5 DUP3 DUP6 ADD PUSH2 0xE60 JUMP JUMPDEST PUSH1 0x40 DUP4 ADD MSTORE POP PUSH1 0x60 PUSH2 0x1308 DUP5 DUP3 DUP6 ADD PUSH2 0xE60 JUMP JUMPDEST PUSH1 0x60 DUP4 ADD MSTORE POP PUSH1 0x80 PUSH2 0x131C DUP5 DUP3 DUP6 ADD PUSH2 0xE93 JUMP JUMPDEST PUSH1 0x80 DUP4 ADD MSTORE POP SWAP3 SWAP2 POP POP JUMP JUMPDEST PUSH0 DUP1 PUSH1 0xC0 DUP4 DUP6 SUB SLT ISZERO PUSH2 0x133E JUMPI PUSH2 0x133D PUSH2 0xE31 JUMP JUMPDEST JUMPDEST PUSH0 PUSH2 0x134B DUP6 DUP3 DUP7 ADD PUSH2 0x11FF JUMP JUMPDEST SWAP3 POP POP PUSH1 0x20 PUSH2 0x135C DUP6 DUP3 DUP7 ADD PUSH2 0x129F JUMP JUMPDEST SWAP2 POP POP SWAP3 POP SWAP3 SWAP1 POP JUMP JUMPDEST PUSH2 0x136F DUP2 PUSH2 0xE39 JUMP JUMPDEST DUP3 MSTORE POP POP JUMP JUMPDEST PUSH2 0x137E DUP2 PUSH2 0xE74 JUMP JUMPDEST DUP3 MSTORE POP POP JUMP JUMPDEST PUSH1 0xA0 DUP3 ADD PUSH0 DUP3 ADD MLOAD PUSH2 0x1398 PUSH0 DUP6 ADD DUP3 PUSH2 0x1366 JUMP JUMPDEST POP PUSH1 0x20 DUP3 ADD MLOAD PUSH2 0x13AB PUSH1 0x20 DUP6 ADD DUP3 PUSH2 0x1366 JUMP JUMPDEST POP PUSH1 0x40 DUP3 ADD MLOAD PUSH2 0x13BE PUSH1 0x40 DUP6 ADD DUP3 PUSH2 0x1366 JUMP JUMPDEST POP PUSH1 0x60 DUP3 ADD MLOAD PUSH2 0x13D1 PUSH1 0x60 DUP6 ADD DUP3 PUSH2 0x1366 JUMP JUMPDEST POP PUSH1 0x80 DUP3 ADD MLOAD PUSH2 0x13E4 PUSH1 0x80 DUP6 ADD DUP3 PUSH2 0x1375 JUMP JUMPDEST POP POP POP POP JUMP JUMPDEST PUSH2 0x13F3 DUP2 PUSH2 0xE74 JUMP JUMPDEST DUP3 MSTORE POP POP JUMP JUMPDEST PUSH0 DUP2 SWAP1 POP SWAP2 SWAP1 POP JUMP JUMPDEST PUSH0 PUSH2 0x141C PUSH2 0x1417 PUSH2 0x1412 DUP5 PUSH2 0x13F9 JUMP JUMPDEST PUSH2 0xD7B JUMP JUMPDEST PUSH2 0xE74 JUMP JUMPDEST SWAP1 POP SWAP2 SWAP1 POP JUMP JUMPDEST PUSH2 0x142C DUP2 PUSH2 0x1402 JUMP JUMPDEST DUP3 MSTORE POP POP JUMP JUMPDEST PUSH0 DUP3 DUP3 MSTORE PUSH1 0x20 DUP3 ADD SWAP1 POP SWAP3 SWAP2 POP POP JUMP JUMPDEST POP JUMP JUMPDEST PUSH0 PUSH2 0x1450 PUSH0 DUP4 PUSH2 0x1432 JUMP JUMPDEST SWAP2 POP PUSH2 0x145B DUP3 PUSH2 0x1442 JUMP JUMPDEST PUSH0 DUP3 ADD SWAP1 POP SWAP2 SWAP1 POP JUMP JUMPDEST PUSH0 PUSH2 0x120 DUP3 ADD SWAP1 POP PUSH2 0x1479 PUSH0 DUP4 ADD DUP8 PUSH2 0x1384 JUMP JUMPDEST PUSH2 0x1486 PUSH1 0xA0 DUP4 ADD DUP7 PUSH2 0x13EA JUMP JUMPDEST PUSH2 0x1493 PUSH1 0xC0 DUP4 ADD DUP6 PUSH2 0x1423 JUMP JUMPDEST PUSH2 0x14A0 PUSH1 0xE0 DUP4 ADD DUP5 PUSH2 0xFD1 JUMP JUMPDEST DUP2 DUP2 SUB PUSH2 0x100 DUP4 ADD MSTORE PUSH2 0x14B2 DUP2 PUSH2 0x1445 JUMP JUMPDEST SWAP1 POP SWAP6 SWAP5 POP POP POP POP POP JUMP JUMPDEST PUSH0 DUP2 MLOAD SWAP1 POP PUSH2 0x14CB DUP2 PUSH2 0xE7D JUMP JUMPDEST SWAP3 SWAP2 POP POP JUMP JUMPDEST PUSH0 DUP1 PUSH1 0x40 DUP4 DUP6 SUB SLT ISZERO PUSH2 0x14E7 JUMPI PUSH2 0x14E6 PUSH2 0xE31 JUMP JUMPDEST JUMPDEST PUSH0 PUSH2 0x14F4 DUP6 DUP3 DUP7 ADD PUSH2 0x14BD JUMP JUMPDEST SWAP3 POP POP PUSH1 0x20 PUSH2 0x1505 DUP6 DUP3 DUP7 ADD PUSH2 0x14BD JUMP JUMPDEST SWAP2 POP POP SWAP3 POP SWAP3 SWAP1 POP JUMP JUMPDEST PUSH0 PUSH2 0x100 DUP3 ADD SWAP1 POP PUSH2 0x1523 PUSH0 DUP4 ADD DUP8 PUSH2 0x1384 JUMP JUMPDEST PUSH2 0x1530 PUSH1 0xA0 DUP4 ADD DUP7 PUSH2 0x13EA JUMP JUMPDEST PUSH2 0x153D PUSH1 0xC0 DUP4 ADD DUP6 PUSH2 0xFD1 JUMP JUMPDEST PUSH2 0x154A PUSH1 0xE0 DUP4 ADD DUP5 PUSH2 0xFD1 JUMP JUMPDEST SWAP6 SWAP5 POP POP POP POP POP JUMP JUMPDEST PUSH32 0x4E487B7100000000000000000000000000000000000000000000000000000000 PUSH0 MSTORE PUSH1 0x11 PUSH1 0x4 MSTORE PUSH1 0x24 PUSH0 REVERT JUMPDEST PUSH0 PUSH2 0x158A DUP3 PUSH2 0xE74 JUMP JUMPDEST SWAP2 POP PUSH2 0x1595 DUP4 PUSH2 0xE74 JUMP JUMPDEST SWAP3 POP DUP3 DUP3 ADD SWAP1 POP DUP1 DUP3 GT ISZERO PUSH2 0x15AD JUMPI PUSH2 0x15AC PUSH2 0x1553 JUMP JUMPDEST JUMPDEST SWAP3 SWAP2 POP POP JUMP JUMPDEST PUSH0 PUSH1 0x20 DUP3 ADD SWAP1 POP PUSH2 0x15C6 PUSH0 DUP4 ADD DUP5 PUSH2 0x13EA JUMP JUMPDEST SWAP3 SWAP2 POP POP JUMP JUMPDEST PUSH0 PUSH2 0x100 DUP3 ADD SWAP1 POP PUSH2 0x15E0 PUSH0 DUP4 ADD DUP7 PUSH2 0x1384 JUMP JUMPDEST PUSH2 0x15ED PUSH1 0xA0 DUP4 ADD DUP6 PUSH2 0x13EA JUMP JUMPDEST PUSH2 0x15FA PUSH1 0xC0 DUP4 ADD DUP5 PUSH2 0xFD1 JUMP JUMPDEST DUP2 DUP2 SUB PUSH1 0xE0 DUP4 ADD MSTORE PUSH2 0x160B DUP2 PUSH2 0x1445 JUMP JUMPDEST SWAP1 POP SWAP5 SWAP4 POP POP POP POP JUMP JUMPDEST PUSH0 PUSH2 0x120 DUP3 ADD SWAP1 POP PUSH2 0x1629 PUSH0 DUP4 ADD DUP9 PUSH2 0x1384 JUMP JUMPDEST PUSH2 0x1636 PUSH1 0xA0 DUP4 ADD DUP8 PUSH2 0x13EA JUMP JUMPDEST PUSH2 0x1643 PUSH1 0xC0 DUP4 ADD DUP7 PUSH2 0x1423 JUMP JUMPDEST PUSH2 0x1650 PUSH1 0xE0 DUP4 ADD DUP6 PUSH2 0xFD1 JUMP JUMPDEST PUSH2 0x165E PUSH2 0x100 DUP4 ADD DUP5 PUSH2 0xFD1 JUMP JUMPDEST SWAP7 SWAP6 POP POP POP POP POP POP JUMP JUMPDEST PUSH32 0x4E6F74206F776E65720000000000000000000000000000000000000000000000 PUSH0 DUP3 ADD MSTORE POP JUMP JUMPDEST PUSH0 PUSH2 0x169C PUSH1 0x9 DUP4 PUSH2 0x1109 JUMP JUMPDEST SWAP2 POP PUSH2 0x16A7 DUP3 PUSH2 0x1668 JUMP JUMPDEST PUSH1 0x20 DUP3 ADD SWAP1 POP SWAP2 SWAP1 POP JUMP JUMPDEST PUSH0 PUSH1 0x20 DUP3 ADD SWAP1 POP DUP2 DUP2 SUB PUSH0 DUP4 ADD MSTORE PUSH2 0x16C9 DUP2 PUSH2 0x1690 JUMP JUMPDEST SWAP1 POP SWAP2 SWAP1 POP JUMP JUMPDEST DUP3 DUP2 DUP4 CALLDATACOPY PUSH0 DUP4 DUP4 ADD MSTORE POP POP POP JUMP JUMPDEST PUSH0 PUSH2 0x16E9 DUP4 DUP6 PUSH2 0x1432 JUMP JUMPDEST SWAP4 POP PUSH2 0x16F6 DUP4 DUP6 DUP5 PUSH2 0x16D0 JUMP JUMPDEST PUSH2 0x16FF DUP4 PUSH2 0x1217 JUMP JUMPDEST DUP5 ADD SWAP1 POP SWAP4 SWAP3 POP POP POP JUMP JUMPDEST PUSH0 PUSH2 0xFFFF DUP3 AND SWAP1 POP SWAP2 SWAP1 POP JUMP JUMPDEST PUSH0 PUSH2 0x1731 PUSH2 0x172C PUSH2 0x1727 DUP5 PUSH2 0x13F9 JUMP JUMPDEST PUSH2 0xD7B JUMP JUMPDEST PUSH2 0x170A JUMP JUMPDEST SWAP1 POP SWAP2 SWAP1 POP JUMP JUMPDEST PUSH2 0x1741 DUP2 PUSH2 0x1717 JUMP JUMPDEST DUP3 MSTORE POP POP JUMP JUMPDEST PUSH0 PUSH1 0xA0 DUP3 ADD SWAP1 POP PUSH2 0x175A PUSH0 DUP4 ADD DUP10 PUSH2 0xFD1 JUMP JUMPDEST PUSH2 0x1767 PUSH1 0x20 DUP4 ADD DUP9 PUSH2 0xFD1 JUMP JUMPDEST PUSH2 0x1774 PUSH1 0x40 DUP4 ADD DUP8 PUSH2 0x13EA JUMP JUMPDEST DUP2 DUP2 SUB PUSH1 0x60 DUP4 ADD MSTORE PUSH2 0x1787 DUP2 DUP6 DUP8 PUSH2 0x16DE JUMP JUMPDEST SWAP1 POP PUSH2 0x1796 PUSH1 0x80 DUP4 ADD DUP5 PUSH2 0x1738 JUMP JUMPDEST SWAP8 SWAP7 POP POP POP POP POP POP POP JUMP JUMPDEST PUSH0 PUSH1 0x40 DUP3 ADD SWAP1 POP PUSH2 0x17B4 PUSH0 DUP4 ADD DUP6 PUSH2 0xFD1 JUMP JUMPDEST PUSH2 0x17C1 PUSH1 0x20 DUP4 ADD DUP5 PUSH2 0xFD1 JUMP JUMPDEST SWAP4 SWAP3 POP POP POP JUMP JUMPDEST PUSH0 PUSH1 0x20 DUP3 DUP5 SUB SLT ISZERO PUSH2 0x17DD JUMPI PUSH2 0x17DC PUSH2 0xE31 JUMP JUMPDEST JUMPDEST PUSH0 PUSH2 0x17EA DUP5 DUP3 DUP6 ADD PUSH2 0x14BD JUMP JUMPDEST SWAP2 POP POP SWAP3 SWAP2 POP POP JUMP JUMPDEST PUSH0 PUSH1 0x40 DUP3 ADD SWAP1 POP PUSH2 0x1806 PUSH0 DUP4 ADD DUP6 PUSH2 0xFD1 JUMP JUMPDEST PUSH2 0x1813 PUSH1 0x20 DUP4 ADD DUP5 PUSH2 0x13EA JUMP JUMPDEST SWAP4 SWAP3 POP POP POP JUMP JUMPDEST PUSH0 PUSH1 0x40 DUP3 ADD SWAP1 POP PUSH2 0x182D PUSH0 DUP4 ADD DUP6 PUSH2 0xFD1 JUMP JUMPDEST PUSH2 0x183A PUSH1 0x20 DUP4 ADD DUP5 PUSH2 0x1423 JUMP JUMPDEST SWAP4 SWAP3 POP POP POP JUMP INVALID LOG2 PUSH5 0x6970667358 0x22 SLT KECCAK256 DUP15 DUP8 0xC3 PUSH5 0x3BDBBB1E9D CALL PREVRANDAO 0xED 0x23 PUSH13 0xC8BB703464CF89DF8C5929F395 0xB0 ADDRESS 0xDF EXTCODESIZE MOD PUSH5 0x736F6C6343 STOP ADDMOD EQ STOP CALLER "},"methodIdentifiers":{"ADDRESSES_PROVIDER()":"0542975c","POOL()":"7535d246","executeOperation(address,uint256,uint256,address,bytes)":"1b11d0ff","morpho()":"d8fbc833","owner()":"8da5cb5b","pool()":"16f0115b","requestLoop(address,uint256,bytes)":"db02a889","requestUnwind(address,uint256,bytes)":"d1fb74a7"}}}}}