{
  "_format": "hh3-artifact-1",
  "contractName": "AgenticLooper",
  "sourceName": "contracts/AgenticLooper.sol",
  "abi": [
    {
      "inputs": [
        {
          "internalType": "address",
          "name": "_pool",
          "type": "address"
        },
        {
          "internalType": "address",
          "name": "_morpho",
          "type": "address"
        }
      ],
      "stateMutability": "nonpayable",
      "type": "constructor"
    },
    {
      "inputs": [
        {
          "internalType": "address",
          "name": "token",
          "type": "address"
        }
      ],
      "name": "SafeERC20FailedOperation",
      "type": "error"
    },
    {
      "anonymous": false,
      "inputs": [
        {
          "indexed": true,
          "internalType": "address",
          "name": "asset",
          "type": "address"
        },
        {
          "indexed": false,
          "internalType": "uint256",
          "name": "amount",
          "type": "uint256"
        }
      ],
      "name": "LoopExecuted",
      "type": "event"
    },
    {
      "anonymous": false,
      "inputs": [
        {
          "indexed": true,
          "internalType": "address",
          "name": "asset",
          "type": "address"
        },
        {
          "indexed": false,
          "internalType": "uint256",
          "name": "amount",
          "type": "uint256"
        }
      ],
      "name": "UnwindExecuted",
      "type": "event"
    },
    {
      "inputs": [],
      "name": "ADDRESSES_PROVIDER",
      "outputs": [
        {
          "internalType": "contract IPoolAddressesProvider",
          "name": "",
          "type": "address"
        }
      ],
      "stateMutability": "view",
      "type": "function"
    },
    {
      "inputs": [],
      "name": "POOL",
      "outputs": [
        {
          "internalType": "contract IPool",
          "name": "",
          "type": "address"
        }
      ],
      "stateMutability": "view",
      "type": "function"
    },
    {
      "inputs": [
        {
          "internalType": "address",
          "name": "asset",
          "type": "address"
        },
        {
          "internalType": "uint256",
          "name": "amount",
          "type": "uint256"
        },
        {
          "internalType": "uint256",
          "name": "premium",
          "type": "uint256"
        },
        {
          "internalType": "address",
          "name": "initiator",
          "type": "address"
        },
        {
          "internalType": "bytes",
          "name": "params",
          "type": "bytes"
        }
      ],
      "name": "executeOperation",
      "outputs": [
        {
          "internalType": "bool",
          "name": "",
          "type": "bool"
        }
      ],
      "stateMutability": "nonpayable",
      "type": "function"
    },
    {
      "inputs": [],
      "name": "morpho",
      "outputs": [
        {
          "internalType": "contract IMorpho",
          "name": "",
          "type": "address"
        }
      ],
      "stateMutability": "view",
      "type": "function"
    },
    {
      "inputs": [],
      "name": "owner",
      "outputs": [
        {
          "internalType": "address",
          "name": "",
          "type": "address"
        }
      ],
      "stateMutability": "view",
      "type": "function"
    },
    {
      "inputs": [],
      "name": "pool",
      "outputs": [
        {
          "internalType": "contract IPool",
          "name": "",
          "type": "address"
        }
      ],
      "stateMutability": "view",
      "type": "function"
    },
    {
      "inputs": [
        {
          "internalType": "address",
          "name": "asset",
          "type": "address"
        },
        {
          "internalType": "uint256",
          "name": "amount",
          "type": "uint256"
        },
        {
          "internalType": "bytes",
          "name": "params",
          "type": "bytes"
        }
      ],
      "name": "requestLoop",
      "outputs": [],
      "stateMutability": "nonpayable",
      "type": "function"
    },
    {
      "inputs": [
        {
          "internalType": "address",
          "name": "asset",
          "type": "address"
        },
        {
          "internalType": "uint256",
          "name": "amountToRepay",
          "type": "uint256"
        },
        {
          "internalType": "bytes",
          "name": "params",
          "type": "bytes"
        }
      ],
      "name": "requestUnwind",
      "outputs": [],
      "stateMutability": "nonpayable",
      "type": "function"
    },
    {
      "stateMutability": "payable",
      "type": "receive"
    }
  ],
  "bytecode": "0x60c060405234801562000010575f80fd5b5060405162001a8338038062001a8383398181016040528101906200003691906200014a565b8173ffffffffffffffffffffffffffffffffffffffff1660808173ffffffffffffffffffffffffffffffffffffffff16815250508073ffffffffffffffffffffffffffffffffffffffff1660a08173ffffffffffffffffffffffffffffffffffffffff1681525050335f806101000a81548173ffffffffffffffffffffffffffffffffffffffff021916908373ffffffffffffffffffffffffffffffffffffffff16021790555050506200018f565b5f80fd5b5f73ffffffffffffffffffffffffffffffffffffffff82169050919050565b5f6200011482620000e9565b9050919050565b620001268162000108565b811462000131575f80fd5b50565b5f8151905062000144816200011b565b92915050565b5f8060408385031215620001635762000162620000e5565b5b5f620001728582860162000134565b9250506020620001858582860162000134565b9150509250929050565b60805160a0516118776200020c5f395f81816103bb01528181610403015281816104a4015281816105e20152818161062a015281816106c3015261097d01525f81816101ea0152818161027c015281816102a1015281816105420152818161076801528181610811015281816108e70152610a2e01526118775ff3fe60806040526004361061007e575f3560e01c80638da5cb5b1161004d5780638da5cb5b14610143578063d1fb74a71461016d578063d8fbc83314610195578063db02a889146101bf57610085565b80630542975c1461008957806316f0115b146100b35780631b11d0ff146100dd5780637535d2461461011957610085565b3661008557005b5f80fd5b348015610094575f80fd5b5061009d6101e7565b6040516100aa9190610dd6565b60405180910390f35b3480156100be575f80fd5b506100c761027a565b6040516100d49190610e0f565b60405180910390f35b3480156100e8575f80fd5b5061010360048036038101906100fe9190610f08565b61029e565b6040516101109190610fb8565b60405180910390f35b348015610124575f80fd5b5061012d61080e565b60405161013a9190610e0f565b60405180910390f35b34801561014e575f80fd5b50610157610835565b6040516101649190610fe0565b60405180910390f35b348015610178575f80fd5b50610193600480360381019061018e9190610ff9565b610858565b005b3480156101a0575f80fd5b506101a961097b565b6040516101b6919061108a565b60405180910390f35b3480156101ca575f80fd5b506101e560048036038101906101e09190610ff9565b61099f565b005b5f7f000000000000000000000000000000000000000000000000000000000000000073ffffffffffffffffffffffffffffffffffffffff16630542975c6040518163ffffffff1660e01b8152600401602060405180830381865afa158015610251573d5f803e3d5ffd5b505050506040513d601f19601f8201168201806040525081019061027591906110de565b905090565b7f000000000000000000000000000000000000000000000000000000000000000081565b5f7f000000000000000000000000000000000000000000000000000000000000000073ffffffffffffffffffffffffffffffffffffffff163373ffffffffffffffffffffffffffffffffffffffff161461032d576040517f08c379a000000000000000000000000000000000000000000000000000000000815260040161032490611163565b60405180910390fd5b3073ffffffffffffffffffffffffffffffffffffffff168473ffffffffffffffffffffffffffffffffffffffff161461039b576040517f08c379a0000000000000000000000000000000000000000000000000000000008152600401610392906111cb565b60405180910390fd5b5f8084848101906103ac9190611328565b9150915081156105dd576104017f0000000000000000000000000000000000000000000000000000000000000000898b73ffffffffffffffffffffffffffffffffffffffff16610ac29092919063ffffffff16565b7f000000000000000000000000000000000000000000000000000000000000000073ffffffffffffffffffffffffffffffffffffffff166320b76e81828a5f306040518563ffffffff1660e01b81526004016104609493929190611465565b60408051808303815f875af115801561047b573d5f803e3d5ffd5b505050506040513d601f19601f8201168201806040525081019061049f91906114d1565b50505f7f000000000000000000000000000000000000000000000000000000000000000073ffffffffffffffffffffffffffffffffffffffff16638720316d838330306040518563ffffffff1660e01b8152600401610501949392919061150f565b5f604051808303815f87803b158015610518575f80fd5b505af115801561052a573d5f803e3d5ffd5b505050505f888a61053b9190611580565b90506105887f0000000000000000000000000000000000000000000000000000000000000000828d73ffffffffffffffffffffffffffffffffffffffff16610ac29092919063ffffffff16565b8a73ffffffffffffffffffffffffffffffffffffffff167f37449a181446b868cc96d3edb3f69b74eef3c7e3ad6b9911c29aba7f8d779d6f8b6040516105ce91906115b3565b60405180910390a250506107fe565b6106287f0000000000000000000000000000000000000000000000000000000000000000898b73ffffffffffffffffffffffffffffffffffffffff16610ac29092919063ffffffff16565b7f000000000000000000000000000000000000000000000000000000000000000073ffffffffffffffffffffffffffffffffffffffff1663238d6579828a306040518463ffffffff1660e01b8152600401610685939291906115cc565b5f604051808303815f87803b15801561069c575f80fd5b505af11580156106ae573d5f803e3d5ffd5b505050505f87896106bf9190611580565b90507f000000000000000000000000000000000000000000000000000000000000000073ffffffffffffffffffffffffffffffffffffffff166350d8cd4b83835f30306040518663ffffffff1660e01b8152600401610722959493929190611615565b60408051808303815f875af115801561073d573d5f803e3d5ffd5b505050506040513d601f19601f8201168201806040525081019061076191906114d1565b50506107ae7f0000000000000000000000000000000000000000000000000000000000000000828c73ffffffffffffffffffffffffffffffffffffffff16610ac29092919063ffffffff16565b8973ffffffffffffffffffffffffffffffffffffffff167f62a093031552467f4715ccc918eefd1542f0df0441aa3ad4929a477f41cb56f58a6040516107f491906115b3565b60405180910390a2505b6001925050509695505050505050565b5f7f0000000000000000000000000000000000000000000000000000000000000000905090565b5f8054906101000a900473ffffffffffffffffffffffffffffffffffffffff1681565b5f8054906101000a900473ffffffffffffffffffffffffffffffffffffffff1673ffffffffffffffffffffffffffffffffffffffff163373ffffffffffffffffffffffffffffffffffffffff16146108e5576040517f08c379a00000000000000000000000000000000000000000000000000000000081526004016108dc906116b2565b60405180910390fd5b7f000000000000000000000000000000000000000000000000000000000000000073ffffffffffffffffffffffffffffffffffffffff166342b0b77c30868686865f6040518763ffffffff1660e01b815260040161094896959493929190611747565b5f604051808303815f87803b15801561095f575f80fd5b505af1158015610971573d5f803e3d5ffd5b5050505050505050565b7f000000000000000000000000000000000000000000000000000000000000000081565b5f8054906101000a900473ffffffffffffffffffffffffffffffffffffffff1673ffffffffffffffffffffffffffffffffffffffff163373ffffffffffffffffffffffffffffffffffffffff1614610a2c576040517f08c379a0000000000000000000000000000000000000000000000000000000008152600401610a23906116b2565b60405180910390fd5b7f000000000000000000000000000000000000000000000000000000000000000073ffffffffffffffffffffffffffffffffffffffff166342b0b77c30868686865f6040518763ffffffff1660e01b8152600401610a8f96959493929190611747565b5f604051808303815f87803b158015610aa6575f80fd5b505af1158015610ab8573d5f803e3d5ffd5b5050505050505050565b5f8373ffffffffffffffffffffffffffffffffffffffff1663dd62ed3e30856040518363ffffffff1660e01b8152600401610afe9291906117a1565b602060405180830381865afa158015610b19573d5f803e3d5ffd5b505050506040513d601f19601f82011682018060405250810190610b3d91906117c8565b9050610b5584848484610b509190611580565b610b5b565b50505050565b5f8373ffffffffffffffffffffffffffffffffffffffff1663095ea7b38484604051602401610b8b9291906117f3565b604051602081830303815290604052915060e01b6020820180517bffffffffffffffffffffffffffffffffffffffffffffffffffffffff83818316178352505050509050610bd98482610c68565b610c6257610c57848573ffffffffffffffffffffffffffffffffffffffff1663095ea7b3865f604051602401610c1092919061181a565b604051602081830303815290604052915060e01b6020820180517bffffffffffffffffffffffffffffffffffffffffffffffffffffffff8381831617835250505050610cc1565b610c618482610cc1565b5b50505050565b5f805f8060205f8651602088015f8a5af192503d91505f519050828015610cb657505f8214610c9a5760018114610cb5565b5f8673ffffffffffffffffffffffffffffffffffffffff163b115b5b935050505092915050565b5f8060205f8451602086015f885af180610ce0576040513d5f823e3d81fd5b3d92505f519150505f8214610cf9576001811415610d14565b5f8473ffffffffffffffffffffffffffffffffffffffff163b145b15610d5657836040517f5274afe7000000000000000000000000000000000000000000000000000000008152600401610d4d9190610fe0565b60405180910390fd5b50505050565b5f73ffffffffffffffffffffffffffffffffffffffff82169050919050565b5f819050919050565b5f610d9e610d99610d9484610d5c565b610d7b565b610d5c565b9050919050565b5f610daf82610d84565b9050919050565b5f610dc082610da5565b9050919050565b610dd081610db6565b82525050565b5f602082019050610de95f830184610dc7565b92915050565b5f610df982610da5565b9050919050565b610e0981610def565b82525050565b5f602082019050610e225f830184610e00565b92915050565b5f604051905090565b5f80fd5b5f80fd5b5f610e4382610d5c565b9050919050565b610e5381610e39565b8114610e5d575f80fd5b50565b5f81359050610e6e81610e4a565b92915050565b5f819050919050565b610e8681610e74565b8114610e90575f80fd5b50565b5f81359050610ea181610e7d565b92915050565b5f80fd5b5f80fd5b5f80fd5b5f8083601f840112610ec857610ec7610ea7565b5b8235905067ffffffffffffffff811115610ee557610ee4610eab565b5b602083019150836001820283011115610f0157610f00610eaf565b5b9250929050565b5f805f805f8060a08789031215610f2257610f21610e31565b5b5f610f2f89828a01610e60565b9650506020610f4089828a01610e93565b9550506040610f5189828a01610e93565b9450506060610f6289828a01610e60565b935050608087013567ffffffffffffffff811115610f8357610f82610e35565b5b610f8f89828a01610eb3565b92509250509295509295509295565b5f8115159050919050565b610fb281610f9e565b82525050565b5f602082019050610fcb5f830184610fa9565b92915050565b610fda81610e39565b82525050565b5f602082019050610ff35f830184610fd1565b92915050565b5f805f806060858703121561101157611010610e31565b5b5f61101e87828801610e60565b945050602061102f87828801610e93565b935050604085013567ffffffffffffffff8111156110505761104f610e35565b5b61105c87828801610eb3565b925092505092959194509250565b5f61107482610da5565b9050919050565b6110848161106a565b82525050565b5f60208201905061109d5f83018461107b565b92915050565b5f6110ad82610e39565b9050919050565b6110bd816110a3565b81146110c7575f80fd5b50565b5f815190506110d8816110b4565b92915050565b5f602082840312156110f3576110f2610e31565b5b5f611100848285016110ca565b91505092915050565b5f82825260208201905092915050565b7f556e74727573746564206c656e646572000000000000000000000000000000005f82015250565b5f61114d601083611109565b915061115882611119565b602082019050919050565b5f6020820190508181035f83015261117a81611141565b9050919050565b7f556e7472757374656420696e69746961746f72000000000000000000000000005f82015250565b5f6111b5601383611109565b91506111c082611181565b602082019050919050565b5f6020820190508181035f8301526111e2816111a9565b9050919050565b6111f281610f9e565b81146111fc575f80fd5b50565b5f8135905061120d816111e9565b92915050565b5f80fd5b5f601f19601f8301169050919050565b7f4e487b71000000000000000000000000000000000000000000000000000000005f52604160045260245ffd5b61125d82611217565b810181811067ffffffffffffffff8211171561127c5761127b611227565b5b80604052505050565b5f61128e610e28565b905061129a8282611254565b919050565b5f60a082840312156112b4576112b3611213565b5b6112be60a0611285565b90505f6112cd84828501610e60565b5f8301525060206112e084828501610e60565b60208301525060406112f484828501610e60565b604083015250606061130884828501610e60565b606083015250608061131c84828501610e93565b60808301525092915050565b5f8060c0838503121561133e5761133d610e31565b5b5f61134b858286016111ff565b925050602061135c8582860161129f565b9150509250929050565b61136f81610e39565b82525050565b61137e81610e74565b82525050565b60a082015f8201516113985f850182611366565b5060208201516113ab6020850182611366565b5060408201516113be6040850182611366565b5060608201516113d16060850182611366565b5060808201516113e46080850182611375565b50505050565b6113f381610e74565b82525050565b5f819050919050565b5f61141c611417611412846113f9565b610d7b565b610e74565b9050919050565b61142c81611402565b82525050565b5f82825260208201905092915050565b50565b5f6114505f83611432565b915061145b82611442565b5f82019050919050565b5f610120820190506114795f830187611384565b61148660a08301866113ea565b61149360c0830185611423565b6114a060e0830184610fd1565b8181036101008301526114b281611445565b905095945050505050565b5f815190506114cb81610e7d565b92915050565b5f80604083850312156114e7576114e6610e31565b5b5f6114f4858286016114bd565b9250506020611505858286016114bd565b9150509250929050565b5f610100820190506115235f830187611384565b61153060a08301866113ea565b61153d60c0830185610fd1565b61154a60e0830184610fd1565b95945050505050565b7f4e487b71000000000000000000000000000000000000000000000000000000005f52601160045260245ffd5b5f61158a82610e74565b915061159583610e74565b92508282019050808211156115ad576115ac611553565b5b92915050565b5f6020820190506115c65f8301846113ea565b92915050565b5f610100820190506115e05f830186611384565b6115ed60a08301856113ea565b6115fa60c0830184610fd1565b81810360e083015261160b81611445565b9050949350505050565b5f610120820190506116295f830188611384565b61163660a08301876113ea565b61164360c0830186611423565b61165060e0830185610fd1565b61165e610100830184610fd1565b9695505050505050565b7f4e6f74206f776e657200000000000000000000000000000000000000000000005f82015250565b5f61169c600983611109565b91506116a782611668565b602082019050919050565b5f6020820190508181035f8301526116c981611690565b9050919050565b828183375f83830152505050565b5f6116e98385611432565b93506116f68385846116d0565b6116ff83611217565b840190509392505050565b5f61ffff82169050919050565b5f61173161172c611727846113f9565b610d7b565b61170a565b9050919050565b61174181611717565b82525050565b5f60a08201905061175a5f830189610fd1565b6117676020830188610fd1565b61177460408301876113ea565b81810360608301526117878185876116de565b90506117966080830184611738565b979650505050505050565b5f6040820190506117b45f830185610fd1565b6117c16020830184610fd1565b9392505050565b5f602082840312156117dd576117dc610e31565b5b5f6117ea848285016114bd565b91505092915050565b5f6040820190506118065f830185610fd1565b61181360208301846113ea565b9392505050565b5f60408201905061182d5f830185610fd1565b61183a6020830184611423565b939250505056fea26469706673582212208e87c3643bdbbb1e9df144ed236cc8bb703464cf89df8c5929f395b030df3b0664736f6c63430008140033",
  "linkReferences": {},
  "deployedLinkReferences": {},
  "immutableReferences": {
    "2309": [
      {
        "length": 32,
        "start": 490
      },
      {
        "length": 32,
        "start": 636
      },
      {
        "length": 32,
        "start": 673
      },
      {
        "length": 32,
        "start": 1346
      },
      {
        "length": 32,
        "start": 1896
      },
      {
        "length": 32,
        "start": 2065
      },
      {
        "length": 32,
        "start": 2279
      },
      {
        "length": 32,
        "start": 2606
      }
    ],
    "2312": [
      {
        "length": 32,
        "start": 955
      },
      {
        "length": 32,
        "start": 1027
      },
      {
        "length": 32,
        "start": 1188
      },
      {
        "length": 32,
        "start": 1506
      },
      {
        "length": 32,
        "start": 1578
      },
      {
        "length": 32,
        "start": 1731
      },
      {
        "length": 32,
        "start": 2429
      }
    ]
  },
  "inputSourceName": "project/contracts/AgenticLooper.sol",
  "buildInfoId": "solc-0_8_20-2f07a788b943224ff1ac2b564e1525f95cbae197"
}